:020000040800F2
:10000000E829002051020008CD0400083904000846
:10001000C9040008D10200084110000800000000D7
:1000200000000000000000000000000005020008C1
:1000300021030008000000004902000879090008B7
:100040006B0200086B0200086B0200086B020008DC
:100050006B0200086B0200086B0200086B020008CC
:100060006B0200086B0200086B0200086B020008BC
:100070006B0200086B0200086B0200086B020008AC
:100080006B0200086B0200086B0200086B0200089C
:100090006B0200086B0200086B0200086B0200088C
:1000A0006B0200086B0200086B0200086B0200087C
:1000B000050D00086B0200086B0200086B020008C7
:1000C0006B0200086B0200086B0200086B0200085C
:1000D0006B0200086B0200086B0200086B0200084C
:1000E0006B0200086B0200086B020008DFF80CD0FE
:1000F00000F0DCF80048004705150008E82900205A
:1001000001B44FF0F00080F3118801BC704701B4D6
:100110004FF0000080F3118801BC704704484FF095
:1001200080510160BFF36F8FBFF34F8F70470000A6
:1001300004ED00E0EFF30980BFF36F8F20E9F04F8B
:10014000BFF36F8FBFF34F8F2D4909680860BFF36E
:100150006F8FBFF34F8F00B501F056F95DF804EBD8
:10016000BFF36F8FBFF34F8F254909680868B0E868
:10017000F04F80F3098800B501F0F0FC5DF804EB66
:10018000BFF36F8FBFF34F8F704700000000000078
:1001900000000000EFF3058000280CBF01DFDFF84E
:1001A00004F0704701010008EFF3058000280CBF40
:1001B00002DFDFF804F070470F010008EFF305805D
:1001C00000280CBF0020012070470D49096808680D
:1001D000B0E8F04F80F309880860BFF36F8F00B577
:1001E000FFF7E2FF5DF804EB4FF0030080F31488A3
:1001F000BFF36F8FBDE80F5006BC82F303888F46B4
:10020000300000201EF0040F0CBFEFF30880EFF366
:100210000980806910F8020C002805D0012805D05B
:10022000022805D0032805D0DFF80CF05FF88CF029
:100230005FF87CF0DFF80CF01D01000801010008F8
:100240000F010008350100085FF808F035010008CB
:100250000648804706480047FEE7FEE7FEE7FEE760
:10026000FEE7FEE7FEE7FEE7FEE7FEE7410A0008DD
:10027000ED00000840EA01039B0703D009E008C92C
:10028000121F08C0042AFAD203E011F8013B00F85B
:10029000013B521EF9D27047034611F8012B00F8BA
:1002A000012B002AF9D1184670470000064C074D73
:1002B00006E0E06840F0010394E807009847103436
:1002C000AC42F6D3FFF716FF7C2000089C20000804
:1002D00000BFFEE72DE9FE4F06460F4690461D463D
:1002E000DDF830A0582001F059F98146B9F1000F2E
:1002F00002D10020BDE8FE8F284601F04FF90446E8
:1003000024B9484601F044F90020F3E743463A4651
:10031000314648468DE8300401F068FDC0B2E9E797
:1003200070472DE9F04102460025002600200023F9
:100330000024002791F803C00CF00F0591F803C0CA
:100340000CF0100CBCF1000F03D091F802C04CEA85
:10035000050591F800C0BCF1000F31D014680020F1
:100360002BE04FF0010C0CFA00F3B1F800C00CEADE
:1003700003069E4220D183004FF00F0C0CFA03F7C6
:10038000BC4305FA03FC4CEA040491F803C0BCF139
:10039000280F06D14FF0010C0CFA00FCC2F814C073
:1003A0000AE091F803C0BCF1480F05D14FF0010CF1
:1003B0000CFA00FCC2F810C0401C0828D1D314600D
:1003C000B1F800C0BCF1FF0F34DD546800202EE00E
:1003D00000F1080C4FF0010808FA0CF3B1F800C066
:1003E0000CEA03069E4221D183004FF00F0C0CFA59
:1003F00003F7BC4305FA03FC4CEA040491F803C07C
:10040000BCF1280F05D100F1080C08FA0CF8C2F86D
:10041000148091F803C0BCF1480F07D100F1080C1B
:100420004FF0010808FA0CF8C2F81080401C0828A8
:10043000CED35460BDE8F08100BFFEE710E009486C
:10044000407868B1074800F0D7FF0446204601F025
:100450002DF828B1A06801F09BF8204601F098F82B
:10046000EDE700001C02002010B54FF4407000F0D2
:1004700067F80E214FF0FF3000F06CF800F08EFAB4
:10048000104800684FF47A71B0FBF1F4B4F1807F4A
:1004900000D311E024F07F40401E4FF0E02148617E
:1004A0000F214FF0FF3000F055F800204FF0E02111
:1004B00088610720086100BFFF216FF0010000F094
:1004C00049F810BD0000002000BFFEE770470000A3
:1004D00070B5002100230F22C47804B3154C2468A2
:1004E00004F4E064C4F5E064210AC1F10403CA40E5
:1004F000447804FA03F184781440214309010E4C36
:100500000678A155047804F01F050124AC40057855
:100510006D11AD0005F1E025C5F8004109E0047852
:1005200004F01F050124AC40044D0678761145F80F
:10053000264070BD0CED00E000E400E080E100E04A
:1005400002490143024A1160704700000000FA05A9
:100550000CED00E010B5002807DA0A07140E054A72
:1005600000F00F031B1FD45403E00A07130E024AC6
:10057000135410BD18ED00E000E400E02DE9F04157
:1005800007460C4616461D460A2F0CD2DFE807F038
:1005900005233A5E82A6BDE3E3D47048006890F874
:1005A0002900012800D0D6E000206C49096881F8B4
:1005B00029006A48006880F830506848006890F860
:1005C0002B0000EB4000664A02EB800163480068A4
:1005D00001F0FAF8BFE06348006820445F49096809
:1005E000C86202205D49096881F829005B480068FB
:1005F00080F83050601C20B15B495848006801F019
:10060000CCF8A8E057480068204454490968C862FB
:1006100003205249096881F829005048006880F891
:100620003860524850F8260000F118014B48006825
:1006300001F099F84948006880F83050601C20B1FA
:1006400049494648006801F0A8F884E04548006838
:10065000204442490968C86204204049096881F879
:1006600029003E48006880F83860404850F826006D
:1006700000F124013948006801F075F83748006836
:1006800080F83050601C20B137493448006801F0D0
:1006900084F860E033480068204430490968C86243
:1006A00005202E49096881F829002C48006880F847
:1006B00040602F4850F8260000F10C0127480068E0
:1006C00001F082F82548006880F83050601C20B1A5
:1006D00025492248006801F060F83CE021480068A4
:1006E00020441E490968C86206201C49096881F82F
:1006F00029001A48006880F83050601C20B11A495F
:100700001648006801F049F825E01448006890F8A0
:1007100029001249096881F82A0007200F49096851
:1007200081F829000D48006880F8305011490B48C5
:10073000006801F049F80EE008200849096881F8CE
:1007400029000648006880F830500B4903480068CB
:1007500001F03AF800BF00BFBDE8F0813000002092
:10076000840000202C000020100200200003002044
:1007700028230020040200201C02002029B1064A80
:10078000D2690243044BDA6104E0034AD26982432E
:10079000014BDA61704700000010024029B1064A9F
:1007A00092690243044B9A6104E0034A92698243CE
:1007B000014B9A61704700000010024030B50021E3
:1007C0000022002400232D4D6D6805F00C0121B19D
:1007D000042905D0082923D105E0294D056022E030
:1007E000274D05601FE0254D6D6805F47012234DFF
:1007F0006D6805F48034022505EB92421CB9214D49
:10080000554305600BE01D4D6D6805F400351DB1C5
:100810001C4D5543056002E0194D5543056002E04B
:10082000174D056000BF00BF144D6D6805F0F00165
:100830000909154D6B5C0568DD4045600F4D6D681D
:1008400005F4E061090A104D6B5C4568DD40856088
:100850000A4D6D6805F46051C90A0B4D6B5C456823
:10086000DD40C560054D6D6805F44041890B074DBD
:100870006B5CC568B5FBF3F5056130BD0010024047
:1008800000127A0000093D0014000020240000201E
:1008900010B500F001F810BD0CB5002001900090DB
:1008A0003348006840F480303149086000BF304868
:1008B000006800F4003000900198401C01900098FE
:1008C00018B90198B0F5A06FF1D12948006800F47B
:1008D000003010B10120009001E00020009000984D
:1008E000012843D12348006840F0100021490860E6
:1008F0000846006820F0030008600846006840F0E1
:10090000020008601A484068194948600846406873
:1009100048600846406840F4806048600846406887
:1009200020F47C1048600846406840F4E8104860B5
:100930000846006840F08070086000BF0C480068FE
:1009400000F000700028F9D00948406820F003004A
:10095000074948600846406840F00200486000BF10
:100960000348406800F00C000828F9D10CBD0000D5
:10097000001002400020024010B500F089FD06483A
:10098000007838B900231A4619461846FFF7F6FDD5
:1009900001F0CBFA10BD00003400002010B500219A
:1009A00000200022214B5B6803F00C0121B10429D7
:1009B00006D0082928D107E01D4B1E4C236027E0F4
:1009C0001B4B1C4C236023E0184B5B6803F4701036
:1009D000164B5B6803F48032022303EB904022B98C
:1009E000154B4343134C23600DE0104B5B6803F43D
:1009F000003323B1104B43430E4C236003E00C4BF8
:100A000043430C4C236003E0094B0A4C236000BFB6
:100A100000BF064B5B68C3F30313084CE15C054B56
:100A20001B68CB40034C236010BD00000010024047
:100A300000127A000000002000093D0004000020A0
:100A400010B51348006840F00100114908600846DD
:100A50004068104908400E494860084600680E4941
:100A600008400B4908600846006820F480200860B0
:100A70000846406820F4FE0048604FF41F0088607C
:100A8000FFF706FF4FF000600449086010BD00004A
:100A9000001002400000FFF8FFFFF6FE08ED00E046
:100AA00070B505460E468F4850F8254094F8290049
:100AB00008284CD2DFE800F0044B0F1423324146E3
:100AC00094F82B1001EB4101874A02EB8100294683
:100AD00000F0AAFB3BE02946844800F0A5FB36E085
:100AE0002946824800F0A0FB94F83810804A52F85A
:100AF000211001F11800294600F096FB27E0294655
:100B00007A4800F091FB94F83810794A52F8211095
:100B100001F12400294600F087FB18E029467348BC
:100B200000F082FB94F84010724A52F8211001F153
:100B30000C00294600F078FB09E029466B4800F0DC
:100B400073FB04E029466C4800F06EFB00BF00BF59
:100B5000062E06D0072E0FD0082E73D0092E0AD1EC
:100B6000B2E014F8290F6070072004F829096249DF
:100B7000204600F029FEB3E094F82A0005287CD234
:100B8000DFE800F00403122D610000BF002084F8AC
:100B9000290094F82B0000EB4000534A02EB80013F
:100BA000204600F011FE7DE05449E06A0968884261
:100BB0000DD8002084F8290094F82B0000EB4000A9
:100BC000494A02EB8001204600F0FEFD06E00220CB
:100BD00084F829004549204600F0DFFD62E04749DE
:100BE000E06A096888420DD994F83800404951F804
:100BF0002000406994F838103D4A52F821100969E4
:100C000088420DD2002084F8290094F82B0000EBD4
:100C10004000354A02EB8001204600F0D5FD10E08F
:100C2000032084F829003149204600F0B6FD94F8ED
:100C300038002F4A52F8200000F11801204600F039
:100C400092FD2FE030E02D49E06A0968884206D91C
:100C500094F83800264951F82000406970B100200E
:100C600084F8290094F82B0000EB40001E4A02EBA8
:100C70008001204600F0A8FD11E011E0042084F876
:100C800029001A49204600F088FD94F83800184AD7
:100C900052F8200000F12401204600F064FD01E03C
:100CA00000BFFEE700BF1BE000202934E073E075C1
:100CB0002070A078293C00EB40000B4A02EB800139
:100CC000204600F081FD0BE0082084F829000C4943
:100CD000204600F079FD0020024941F8250000BFC0
:100CE00000BF70BD5C0000208400002010020020C6
:100CF0000003002028230020040200202C000020F4
:100D00001C02002010B50121880700F062F828B10C
:100D100000F006F80121880700F04CF810BD000033
:100D200010B5002205A10648007800F0A7FE0022B9
:100D300004A10348007800F0A1FE10BD737967009C
:100D400028000020535947003EB505460C460121B6
:100D50000846FFF713FDADF80450ADF80040002041
:100D6000ADF80600ADF8020069464FF0804000F093
:100D70004BF80121880700F01DF801221146900769
:100D800000F038F800F005F80121880700F015F8A8
:100D90003EBD08B51C208DF8000001208DF8010033
:100DA00000208DF8020001208DF803006846FFF74F
:100DB0008FFB08BDCA430282704721B1028842F00E
:100DC0000102028004E002884FF6FE731A4002809E
:100DD000704730B50246002000230024158A05EA3A
:100DE0000103958905EA010413B10CB1012000E06B
:100DF000002030BD1AB183890B43838102E08389CF
:100E00008B43838170470000002202881D4B98426B
:100E10000ED01D4B98420BD0B0F1804F08D01B4B29
:100E2000984205D01A4B984202D01A4B984204D1EE
:100E30004FF68F731A404B881A43174B984207D0CE
:100E4000164B984204D04FF6FF431A40CB881A4302
:100E500002808B8883850B8803850A4B98420BD0D0
:100E6000094B984208D00E4B984205D00D4B984242
:100E700002D00D4B984201D10B7A03860123838265
:100E800070470000002C0140003401400004004085
:100E900000080040000C004000100040001400401A
:100EA000004001400044014000480140002001F0A2
:100EB00079F800BFFEE721B1828942F400528281B5
:100EC00004E082894DF6FF731A4082817047024622
:100ED0000020B1F5007F00D100BF13880B400BB19B
:100EE000012000E0002070472DE9F04786B005465C
:100EF0000E460024A24600BFA1460027B08900B1DB
:100F000000BF2F462C8A4CF6FF700440F088044343
:100F10002C82AC894EF6F3100440B0883189084326
:100F2000718908430443AC81AC8A4FF6FF4004400A
:100F3000B0890443AC8201A8FFF740FC1F488742F8
:100F400002D1DDF810A001E0DDF80CA0A88900F4C2
:100F5000004040B10AEBCA0000EB0A1031684900BA
:100F6000B0FBF1F807E00AEBCA0000EB0A103168A9
:100F70008900B0FBF1F86420B8FBF0F0040120090F
:100F8000642101FB1089A88900F4004040B132209F
:100F900000EBC900B0FBF1F000F00700044308E0EB
:100FA000322000EB09106421B0FBF1F000F00F00DB
:100FB00004432C8106B0BDE8F087000000380140F2
:100FC000C1F308028280704710B586B00446012143
:100FD00044F20400FFF7E2FB4FF40070ADF8140098
:100FE00003208DF8160018208DF8170005A9124867
:100FF000FFF797F94FF48060ADF8140004208DF8E6
:10100000170005A90C48FFF78CF901940020ADF8F2
:101010000800ADF80A00ADF80C00ADF810000C2087
:10102000ADF80E0001A90548FFF75EFF0121034856
:10103000FFF741FF06B010BD000801400038014035
:1010400000BFFEE70FB4054B10B503A9044A029890
:1010500000F017F810BC5DF814FB00000512000842
:101060005800002002E008C8121F08C1002AFAD167
:1010700070477047002001E001C1121F002AFBD118
:1010800070472DE9F84F9946924688460546002755
:1010900006E025280AD051464A4690476D1C7F1C21
:1010A00028780028F5D13846BDE8F88F002315F8D8
:1010B000011F18462E2915D115F8011F04232A29CE
:1010C0000DD06FF02F022978A1F13004092C09D836
:1010D00000EB800002EB400008446D1CF3E758F879
:1010E000040B6D1C2A78002ADDD0632A07D0732AEE
:1010F0000FD0104651464A4690477F1C2AE018F808
:10110000042B8DF8002000218DF801106E4601217E
:1011100003E058F8046B4FF0FF315A074FF000041A
:1011200001D409E0641C84420BDA8C42FADB325DA4
:10113000002AF7D105E0641C8C42FCDB305D0028FE
:10114000F9D1274404E016F8010B51464A4690476E
:10115000641EF8D26D1CA3E770B505463EE0284634
:1011600000F04AF9044694F8290003280AD194F8BB
:10117000281094F838201F4B53F8222002F1180051
:1011800000F052F894F8290004280AD194F82810A5
:1011900094F83820174B53F8222002F1240000F075
:1011A00043F894F8290005280AD194F8281094F8F7
:1011B0004020114B53F8222002F10C0000F034F8CB
:1011C000002084F8290094F82B0000EB40000B4A23
:1011D00002EB8001204600F0F7FA00BF687840B1CA
:1011E0006868C06A06490968081A6FF000418842B9
:1011F000B5D370BD00030020282300208400002008
:101200002C00002070B504460D46E1B20548FFF7FA
:10121000D7FE00BF80210348FFF759FE0028F9D010
:10122000204670BD003801402DE9F04106460F46CA
:10123000746814B90020BDE8F081012505E0646BF5
:10124000681CC5B20CB90020F5E7054850F8270026
:10125000A042F4D12946304600F020F8EBE7000028
:101260005C000020F0B506460F4674680CB90020FB
:10127000F0BD012505E0A469681CC5B20CB90020C9
:10128000F6E7054850F82700A042F4D12946304639
:1012900000F0CDF8ECE700005023002030B5024606
:1012A0000B46107820B101282ED0022870D157E0CB
:1012B000507808B9002030BD5168012B0ED150681C
:1012C000406B50605078012801D1002090600020D0
:1012D00048635078401E50700846ECE7002402E056
:1012E000496B651CECB29D1EA542F9DC486B4C6B4A
:1012F000646B4C639468844200D191600024446321
:101300005478641E5470D6E7507808B90020D2E7AC
:101310005168012B0ED15068C06B50605078012885
:1013200001D1002090600020C8635078401E5070AA
:101330000846C0E7002402E0C96B651CECB29D1EA4
:10134000A542F9DCC86BCC6BE46BCC639468844237
:1013500000D191600024C4635478641E5470AAE7DD
:10136000507808B90020A6E75168012B0ED15068CB
:10137000C06C50605078012801D10020906000209E
:10138000C8645078401E5070084694E7002403E07B
:1013900013E0C96C651CECB29D1EA542F9DCC86C5B
:1013A000CC6CE46CCC649468844200D191600024DD
:1013B000C4645478641E54707DE700BF00BF7AE7B0
:1013C00010B500200AE000EB40010A4A02EB81015F
:1013D000497809B1044603E0411CC8B22028F2DB79
:1013E00000BF04EB4401034A02EB810000F004F863
:1013F00010BD00008400002010B5044601212046E5
:10140000FFF74CFF10BD000010B5FFF7D9FF0349EF
:1014100008600120096881F8290010BD3000002013
:1014200010B504460121204600F001F810BD30B58A
:1014300002460B46107808B9002030BD5168012BD8
:101440000ED15068806950601078012801D10020C9
:101450009060002088611078401E10700846ECE70C
:10146000002402E08969651CECB29D1EA542F9DCEE
:1014700088698C69A4698C619468844200D1916008
:10148000002484611478641E147000BFD5E7000046
:1014900010B504480068401C024908600248FFF784
:1014A0005BFE10BD2C000020100200200146054804
:1014B000884205D800F50050814201D801207047CC
:1014C0000020FCE72803002000200AE000EB400297
:1014D0000A4B03EB820252780AB1014603E0421C38
:1014E000D0B22028F2DB00BF0548006890F82B003E
:1014F000884201DD012070470020FCE784000020C5
:101500003000002008B54FF44070FFF719F84FF491
:10151000E130FFF759FD0F204FF4007300220F490F
:1015200000900FA0FEF7D6FE0F4908700F204FF471
:10153000007300220D4900900DA0FEF7CBFE0E496E
:1015400008700EA0FFF77EFD41F61F4142F20F70BA
:10155000FFF7FAFB00F006FC002008BD311F000871
:101560007461736B3100000029000020691F0008BE
:101570007461736B320000002A00002073796720C9
:1015800072746F73207374617274210A000000001A
:1015900010B50446204600F031FD10BD10B50446DC
:1015A000204600F055F910BD30B54FF400531748F0
:1015B00000F007042CB1C01D20F00700134C041BE1
:1015C0001B1B0246124C22600024114D6C60D01887
:1015D000083820F007000F4C206000240D4D2D68C6
:1015E0006C600C4D2D682C601146441A4C60094CFF
:1015F00024680C60084D4C682C60084D4C682C60C9
:101600004FF00044064D2C6030BD00002803002040
:101610003800002040000020480000204400002046
:101620005400002010B50146164800E00068036829
:101630008B42FBD30246436813448B4204D1436878
:101640004C682344436001460A464B6813440468CF
:10165000A34211D10C4C03682468A34208D04B6804
:101660000468646823444B6003681B680B6005E0F2
:10167000054B1B680B6001E003680B60884200D0DB
:10168000016010BD380000204000002030B50B780C
:1016900023B1012B23D0022B63D141E0012A09D1D0
:1016A0004B68436348604B7803B988604B785B1C98
:1016B0004B7013E04B68002402E05B6B651CECB2DE
:1016C000951EA542F9DC5C6B446358638C689C42B0
:1016D00000D188604C78641C4C7000BF41E0012A46
:1016E00009D14B68C36348604B7803B988604B7875
:1016F0005B1C4B7013E04B68002402E0DB6B651C45
:10170000ECB2951EA542F9DCDC6BC463D8638C682F
:101710009C4200D188604C78641C4C7000BF20E073
:10172000012A09D14B68C36448604B7803B98860CB
:101730004B785B1C4B7013E04B68002402E0DB6CC1
:10174000651CECB2951EA542F9DCDC6CC464D8645F
:101750008C689C4200D188604C78641C4C7000BF3F
:1017600000BF00BF30BD2DE9F04105460E4674684C
:10177000012704E004B908E0646B781CC7B295F84F
:101780002B0094F82B108842F4DA00BF3A46314619
:101790002846FFF77BFFBDE8F0812DE9F0410546C3
:1017A0000E467468012702E0781CC7B2646B24B14E
:1017B000E86AE16A401A0028F6DC3A4631462846D3
:1017C000FFF764FFBDE8F08170B505460C46607810
:1017D000401CC2B221462846FFF758FF70BD30B505
:1017E0001346012B09D14A68826148600A7802B920
:1017F00088600A78521C0A7013E04A68002402E0EC
:101800009269651CECB29D1EA542F9DC9469846165
:1018100090618C68944200D188600C78641C0C70D4
:1018200000BF30BDF0B505460E467468012702E0E2
:10183000781CC7B2A46924B1A868A168401A00281E
:10184000F6DC3A4631462846FFF7C9FFF0BD0000F6
:101850002DE9F04104464FF0000800F057FB3B48EB
:10186000006808B9FFF7A0FE39480068204000284A
:101870005ED18CB1083404F0070068B104F00700B1
:10188000C0F10800044404F0070008B9012000E09A
:10189000002008B900BFFEE7002C49D02D480068A1
:1018A000844245D82C4E3046056801E02E462D680E
:1018B0006868A04202D228680028F7D1234800684F
:1018C000854235D0306800F10808286830606868C3
:1018D000001B102810D92F1907F0070008B90120A4
:1018E00000E0002008B900BFFEE76868001B7860D0
:1018F0006C603846FFF796FE164968680968081A52
:10190000144908600846006814490968884203D2EF
:1019100010480068114908600D4968680968084363
:101920006860002028600E480068401C0C49086070
:1019300000F022F908F0070008B9012000E00020BB
:1019400008B900BFFEE74046BDE8F0814000002036
:1019500054000020440000203800002048000020EF
:101960004C0000202DE9F04104460D463C20FFF7D5
:1019700015FE074617B90020BDE8F081002654B1D6
:1019800004FB05F0FFF70AFE064626B93846FFF7C6
:10199000FFFD0020F0E72B4622463146384600F096
:1019A00081FAE9E72DE9F04105460F461646FEF7B4
:1019B000F1FB314850F8254024B9FEF7F5FB022031
:1019C000BDE8F0816069D0B916B1FEF7F7FB18B138
:1019D000FEF7EAFB0120F3E701232A463146032004
:1019E000FEF7CCFD00F09EFA1CB9FEF7DDFB0220ED
:1019F000E6E7606918B9FEF7D7FB0120E0E7E06889
:101A000098B1D4E903104843617AB1FBF0F200FBCE
:101A100012106072637A6068C1183846E268FEF797
:101A200029FC607A217B084460726069401E606115
:101A3000607E28B1E16991F828000821FFF730F8AD
:101A4000FFF742FD98B1FEF7B9FB40B100231A46FB
:101A500019461846FEF792FD00F067FA07E00123E9
:101A6000002211461046FEF789FD00F05BFAFEF7F2
:101A70009BFB0020A4E70000000300202DE9F041BB
:101A800005460F461646FEF785FB334850F82540BD
:101A900024B9FEF789FB0220BDE8F081D4E90410E7
:101AA00088421CD316B1FEF789FB18B1FEF77CFB08
:101AB0000120F1E701232A4631460220FEF75EFDB0
:101AC00000F030FA1CB9FEF76FFB0220E4E7D4E91E
:101AD0000410884203D3FEF767FB0120DCE7E068CF
:101AE00098B1D4E903104843217AB1FBF0F200FB2E
:101AF00012102072237A6168C8183946E268FEF72E
:101B0000B9FB207A217B084420726069401C606127
:101B10002520005D28B1A16A91F828000821FEF770
:101B2000BFFFFFF7D1FC98B1FEF748FB40B100239F
:101B30001A4619461846FEF721FD00F0F6F907E0AF
:101B40000123002211461046FEF718FD00F0EAF9C5
:101B5000FEF72AFB00209FE70003002010B5054890
:101B6000006890F8300010B1FEF7CAFA01E0FEF705
:101B7000CEFA10BD3000002010B5FEF70BFB0020A0
:101B800002490870FEF710FB002010BD3400002051
:101B90001CB50A2308222C492C4800F083F94FF089
:101BA000FF3650E02949087832466946FFF7FAFEC9
:101BB000054685B9DDE9000100F04EF824480078BB
:101BC00030B123484068806822490968461A3AE0E3
:101BD0004FF0FF3637E0002432E01D48FFF720FCCD
:101BE000044614B94FF0FF362BE01A49A068096883
:101BF000081A6FF00041884214D2206910B1D4E96C
:101C00000410884700206070207BC8B111496068CB
:101C100009680844A0600E492046FFF703FE012032
:101C200060700DE00A492046FFF7FCFD0848007887
:101C300028B107484068806806490968461A00E0EC
:101C4000CBE700BF00BFADE7B4230020782300201E
:101C5000042400202C00002013B59DF800002E491C
:101C600051F8204004B91CBD9DF80100052850D250
:101C7000DFE800F003111A2A3C00607850B9012017
:101C800060702649606809680844A06024492046BD
:101C9000FFF7C8FD3DE0607828B100206070217832
:101CA0001F48FFF7DFFA34E0607818B121781C484C
:101CB000FFF7D8FA1949606809680844A060184914
:101CC0002046FFF7AFFD24E0607818B12178144872
:101CD000FFF7C8FA01986060104960680968084415
:101CE000A0600F492046FFF79DFD12E0607818B113
:101CF00021780B48FFF7B6FA00202178064A42F80F
:101D000021002046FFF7D2FB10B12046FFF740FC30
:101D100000BF00BF00BFA6E7502300202C0000201A
:101D20000424002010B520F007004FF08074031F3A
:101D300018461C60031F18461960094C031F1846FB
:101D40001C600024031F18461C600C38031F184633
:101D50001A60E41E031F18461C60203810BD0000E6
:101D6000AD0E00080EB51F208021124A0023CDE9D8
:101D700000210290104A11A1134800F037F80A2000
:101D80008021124A0023CDE900210290104A11A1BE
:101D9000144800F02BF8FFF713FB134908600120EB
:101DA000096881F82900FEF7F5F9FEF75DFBFEF7FB
:101DB0000CFA0EBD800200203D04000849444C4549
:101DC0005F5441534B00000028020020682400208B
:101DD000911B0008736F667454696D65725461736A
:101DE0006B00000010240020300000202DE9F05F7F
:101DF0000446884615461E46DDE90B9A0A9FFEF703
:101E0000C9F94FF0000BA7604FEA990007EB80007B
:101E10006060324629466068FFF784FF20604146D3
:101E200004F10C00FEF738FA2562666201200CE02E
:101E30001A4951F8201031B9184941F8204084F866
:101E40002800834603E0411CC8B20A28F0DB00BF2B
:101E500000202C3404F8030C04F8020C04F801AC44
:101E600020602071A060207320612075A061207720
:101E70002062606284F8280014F8010C2C3C00EB0E
:101E80004000074A02EB80012046FFF79DFCFEF769
:101E90008BF94FFA8BF0BDE8F09F00005C0000204A
:101EA000840000202DE9F04104460E46174698466E
:101EB000FEF770F96660002020726072E760C4F877
:101EC00010806061012084F824002076002084F8CE
:101ED0003000606384F8390001250EE00A4850F8AC
:101EE000250040B9084840F825402570FEF75CF908
:101EF0002846BDE8F081681CC5B20A2DEEDBFEF76E
:101F000053F90020F5E700000003002010B5FEF7AC
:101F100041F9012002490870FEF746F9002010BD82
:101F20003400002000B503DF00BD00B500DF00BDB8
:101F300008B502210420FFF715FD094908700DE0DE
:101F40004FF0FF32694606480078FFF72BFD044644
:101F50001CB9694603A0FFF775F800BFF0E7000061
:101F6000280000202573000005E003A0FFF76AF8B1
:101F7000C82000F003F8F8E72E00000010B5044672
:101F8000FEF708F914B9FEF70FF910BD012300227E
:101F900021461846FEF7F2FAFFF7C4FFFEF704F9F0
:101FA00000BFF2E710B50446FEF7F4F844B9012388
:101FB000002211460920FEF7E1FAFFF7B3FF16E011
:101FC0000D4850F8240018B9FEF7EEF8022010BDB5
:101FD000094850F8240090F82900012803D1FEF7A1
:101FE000E3F80120F3E709212046FEF759FDFEF74B
:101FF000DBF80020EBE700005C00002070B506462F
:102000003546002E32D0083D2C46194960680968D3
:10201000084008B1012000E0002008B900BFFEE739
:10202000206808B9012000E0002008B900BFFEE7E1
:102030000F49606809680840C0B12068B0B90C4910
:102040006068096888436060FFF760FF094960685D
:1020500009680844074908602046FFF7E3FA064884
:102060000068401C04490860FFF786FD70BD000051
:102070005400002044000020500000209C20000854
:10208000000000205C00000064100008F820000838
:102090005C0000208C2900007410000800A24A0493
:1020A0000000000000000000010203040607080908
:1020B00000000000010203040102030406070809EE
:1020C00002040608000000000000000000000000FC
:1020D0000000000000000000000000000000000000
:1020E00000000000000000000000000000000000F0
:0820F0000000000000000000E8
:04000005080000ED02
:00000001FF
