Component: ARM Compiler 5.06 update 5 (build 528) Tool: armlink [4d35e2]

==============================================================================

Section Cross References

    startup_stm32f10x_md.o(RESET) refers to startup_stm32f10x_md.o(STACK) for __initial_sp
    startup_stm32f10x_md.o(RESET) refers to startup_stm32f10x_md.o(.text) for Reset_Handler
    startup_stm32f10x_md.o(RESET) refers to stm32f10x_it.o(i.NMI_Handler) for NMI_Handler
    startup_stm32f10x_md.o(RESET) refers to stm32f10x_it.o(i.HardFault_Handler) for HardFault_Handler
    startup_stm32f10x_md.o(RESET) refers to stm32f10x_it.o(i.MemManage_Handler) for MemManage_Handler
    startup_stm32f10x_md.o(RESET) refers to stm32f10x_it.o(i.BusFault_Handler) for BusFault_Handler
    startup_stm32f10x_md.o(RESET) refers to stm32f10x_it.o(i.UsageFault_Handler) for UsageFault_Handler
    startup_stm32f10x_md.o(RESET) refers to port.o(.emb_text) for SVC_Handler
    startup_stm32f10x_md.o(RESET) refers to stm32f10x_it.o(i.DebugMon_Handler) for DebugMon_Handler
    startup_stm32f10x_md.o(RESET) refers to port.o(i.SysTick_Handler) for SysTick_Handler
    startup_stm32f10x_md.o(RESET) refers to timer.o(i.TIM2_IRQHandler) for TIM2_IRQHandler
    startup_stm32f10x_md.o(.text) refers to system_stm32f10x.o(i.SystemInit) for SystemInit
    startup_stm32f10x_md.o(.text) refers to entry.o(.ARM.Collect$$$$00000000) for __main
    system_stm32f10x.o(i.SetSysClock) refers to system_stm32f10x.o(i.SetSysClockTo72) for SetSysClockTo72
    system_stm32f10x.o(i.SystemCoreClockUpdate) refers to system_stm32f10x.o(.data) for SystemCoreClock
    system_stm32f10x.o(i.SystemInit) refers to system_stm32f10x.o(i.SetSysClock) for SetSysClock
    stm32f10x_adc.o(i.ADC_DeInit) refers to stm32f10x_rcc.o(i.RCC_APB2PeriphResetCmd) for RCC_APB2PeriphResetCmd
    stm32f10x_bkp.o(i.BKP_DeInit) refers to stm32f10x_rcc.o(i.RCC_BackupResetCmd) for RCC_BackupResetCmd
==============================================================================

Removing Unused input sections from the image.

    Removing startup_stm32f10x_md.o(HEAP), (512 bytes).
    Removing core_cm3.o(.emb_text), (32 bytes).
    Removing misc.o(i.NVIC_SetVectorTable), (20 bytes).
    Removing misc.o(i.NVIC_SystemLPConfig), (32 bytes).
    Removing misc.o(i.SysTick_CLKSourceConfig), (40 bytes).
    Removing stm32f10x_adc.o(i.ADC_AnalogWatchdogCmd), (20 bytes).
    Removing stm32f10x_adc.o(i.ADC_AnalogWatchdogSingleChannelConfig), (16 bytes).
    Removing stm32f10x_adc.o(i.ADC_AnalogWatchdogThresholdsConfig), (6 bytes).
    Removing stm32f10x_adc.o(i.ADC_AutoInjectedConvCmd), (22 bytes).
    Removing stm32f10x_adc.o(i.ADC_ClearFlag), (6 bytes).
    Removing stm32f10x_adc.o(i.ADC_ClearITPendingBit), (10 bytes).
    Removing stm32f10x_adc.o(i.ADC_Cmd), (22 bytes).
    Removing stm32f10x_adc.o(i.ADC_DMACmd), (22 bytes).
    Removing stm32f10x_adc.o(i.ADC_DeInit), (92 bytes).
    Removing stm32f10x_adc.o(i.ADC_DiscModeChannelCountConfig), (24 bytes).
    Removing stm32f10x_adc.o(i.ADC_DiscModeCmd), (22 bytes).
    Removing stm32f10x_adc.o(i.ADC_ExternalTrigConvCmd), (22 bytes).
    Removing stm32f10x_adc.o(i.ADC_ExternalTrigInjectedConvCmd), (22 bytes).
==============================================================================

Image Symbol Table

    Local Symbols

    Symbol Name                              Value     Ov Type        Size  Object(Section)

    ../clib/microlib/division.c              0x00000000   Number         0  uidiv.o ABSOLUTE
    ../clib/microlib/division.c              0x00000000   Number         0  uldiv.o ABSOLUTE
    ../clib/microlib/init/entry.s            0x00000000   Number         0  entry5.o ABSOLUTE
    ../clib/microlib/init/entry.s            0x00000000   Number         0  entry.o ABSOLUTE
    ../clib/microlib/init/entry.s            0x00000000   Number         0  entry2.o ABSOLUTE
    ../clib/microlib/init/entry.s            0x00000000   Number         0  entry9a.o ABSOLUTE
    ../clib/microlib/init/entry.s            0x00000000   Number         0  entry7b.o ABSOLUTE
    ../clib/microlib/init/entry.s            0x00000000   Number         0  entry7a.o ABSOLUTE
    ../clib/microlib/init/entry.s            0x00000000   Number         0  entry8a.o ABSOLUTE
    ../clib/microlib/init/entry.s            0x00000000   Number         0  entry8b.o ABSOLUTE
    ../clib/microlib/init/entry.s            0x00000000   Number         0  entry9b.o ABSOLUTE
    ../clib/microlib/init/entry.s            0x00000000   Number         0  entry10a.o ABSOLUTE
    ../clib/microlib/init/entry.s            0x00000000   Number         0  entry10b.o ABSOLUTE
    ../clib/microlib/init/entry.s            0x00000000   Number         0  entry11a.o ABSOLUTE
    ../clib/microlib/init/entry.s            0x00000000   Number         0  entry11b.o ABSOLUTE
    ../clib/microlib/longlong.c              0x00000000   Number         0  llsshr.o ABSOLUTE
    ../clib/microlib/longlong.c              0x00000000   Number         0  llushr.o ABSOLUTE
    ../clib/microlib/longlong.c              0x00000000   Number         0  llshl.o ABSOLUTE
    ../clib/microlib/printf/printf.c         0x00000000   Number         0  printfb.o ABSOLUTE
    ../clib/microlib/printf/printf.c         0x00000000   Number         0  printf1.o ABSOLUTE
    ../clib/microlib/printf/printf.c         0x00000000   Number         0  printf2.o ABSOLUTE
    ../clib/microlib/printf/printf.c         0x00000000   Number         0  printf3.o ABSOLUTE
    ../clib/microlib/printf/printf.c         0x00000000   Number         0  printf4.o ABSOLUTE
    ../clib/microlib/printf/printf.c         0x00000000   Number         0  printf5.o ABSOLUTE
    ../clib/microlib/printf/printf.c         0x00000000   Number         0  printf7.o ABSOLUTE
    ../clib/microlib/printf/printf.c         0x00000000   Number         0  printf6.o ABSOLUTE
    ../clib/microlib/printf/printf.c         0x00000000   Number         0  printf8.o ABSOLUTE
    ../clib/microlib/printf/printf.c         0x00000000   Number         0  printfa.o ABSOLUTE
    ../clib/microlib/printf/printf.c         0x00000000   Number         0  printf0.o ABSOLUTE
    ../clib/microlib/printf/stubs.s          0x00000000   Number         0  stubs.o ABSOLUTE
    ../clib/microlib/stdio/streams.c         0x00000000   Number         0  stdout.o ABSOLUTE
    ../clib/microlib/string/memcpy.c         0x00000000   Number         0  memcpyb.o ABSOLUTE
    ../clib/microlib/string/memcpy.c         0x00000000   Number         0  memcpya.o ABSOLUTE
    ../clib/microlib/string/strcpy.c         0x00000000   Number         0  strcpy.o ABSOLUTE
    ../clib/microlib/stubs.s                 0x00000000   Number         0  iusefp.o ABSOLUTE
    ../fplib/microlib/fpadd.c                0x00000000   Number         0  dadd.o ABSOLUTE
    ../fplib/microlib/fpdiv.c                0x00000000   Number         0  ddiv.o ABSOLUTE
    ../fplib/microlib/fpepilogue.c           0x00000000   Number         0  depilogue.o ABSOLUTE
    ../fplib/microlib/fpfix.c                0x00000000   Number         0  dfixul.o ABSOLUTE
    ../fplib/microlib/fpmul.c                0x00000000   Number         0  dmul.o ABSOLUTE
    BSP\LED.c                                0x00000000   Number         0  led.o ABSOLUTE
    BSP\timer.c                              0x00000000   Number         0  timer.o ABSOLUTE
    BSP\uart.c                               0x00000000   Number         0  uart.o ABSOLUTE
    Library\misc.c                           0x00000000   Number         0  misc.o ABSOLUTE
    Library\stm32f10x_adc.c                  0x00000000   Number         0  stm32f10x_adc.o ABSOLUTE
    Library\stm32f10x_bkp.c                  0x00000000   Number         0  stm32f10x_bkp.o ABSOLUTE
    Library\stm32f10x_can.c                  0x00000000   Number         0  stm32f10x_can.o ABSOLUTE
    Library\stm32f10x_cec.c                  0x00000000   Number         0  stm32f10x_cec.o ABSOLUTE
    Library\stm32f10x_crc.c                  0x00000000   Number         0  stm32f10x_crc.o ABSOLUTE
    Library\stm32f10x_dac.c                  0x00000000   Number         0  stm32f10x_dac.o ABSOLUTE
    Library\stm32f10x_dbgmcu.c               0x00000000   Number         0  stm32f10x_dbgmcu.o ABSOLUTE
    Library\stm32f10x_dma.c                  0x00000000   Number         0  stm32f10x_dma.o ABSOLUTE
    Library\stm32f10x_exti.c                 0x00000000   Number         0  stm32f10x_exti.o ABSOLUTE
    Library\stm32f10x_flash.c                0x00000000   Number         0  stm32f10x_flash.o ABSOLUTE
    Library\stm32f10x_fsmc.c                 0x00000000   Number         0  stm32f10x_fsmc.o ABSOLUTE
    Library\stm32f10x_gpio.c                 0x00000000   Number         0  stm32f10x_gpio.o ABSOLUTE
    Library\stm32f10x_i2c.c                  0x00000000   Number         0  stm32f10x_i2c.o ABSOLUTE
    Library\stm32f10x_iwdg.c                 0x00000000   Number         0  stm32f10x_iwdg.o ABSOLUTE
    Library\stm32f10x_pwr.c                  0x00000000   Number         0  stm32f10x_pwr.o ABSOLUTE
    Library\stm32f10x_rcc.c                  0x00000000   Number         0  stm32f10x_rcc.o ABSOLUTE
    Library\stm32f10x_rtc.c                  0x00000000   Number         0  stm32f10x_rtc.o ABSOLUTE
    Library\stm32f10x_sdio.c                 0x00000000   Number         0  stm32f10x_sdio.o ABSOLUTE
    Library\stm32f10x_spi.c                  0x00000000   Number         0  stm32f10x_spi.o ABSOLUTE
    Library\stm32f10x_tim.c                  0x00000000   Number         0  stm32f10x_tim.o ABSOLUTE
    Library\stm32f10x_usart.c                0x00000000   Number         0  stm32f10x_usart.o ABSOLUTE
    Library\stm32f10x_wwdg.c                 0x00000000   Number         0  stm32f10x_wwdg.o ABSOLUTE
    Start\\core_cm3.c                        0x00000000   Number         0  core_cm3.o ABSOLUTE
    Start\core_cm3.c                         0x00000000   Number         0  core_cm3.o ABSOLUTE
    Start\startup_stm32f10x_md.s             0x00000000   Number         0  startup_stm32f10x_md.o ABSOLUTE
    Start\system_stm32f10x.c                 0x00000000   Number         0  system_stm32f10x.o ABSOLUTE
    User\main.c                              0x00000000   Number         0  main.o ABSOLUTE
    User\stm32f10x_it.c                      0x00000000   Number         0  stm32f10x_it.o ABSOLUTE
    cdrcmple.s                               0x00000000   Number         0  cdrcmple.o ABSOLUTE
    dc.s                                     0x00000000   Number         0  dc.o ABSOLUTE
    handlers.s                               0x00000000   Number         0  handlers.o ABSOLUTE
    init.s                                   0x00000000   Number         0  init.o ABSOLUTE
    syg_rtos\MemMang\heap_4.c                0x00000000   Number         0  heap_4.o ABSOLUTE
    syg_rtos\\src\\port.c                    0x00000000   Number         0  port.o ABSOLUTE
    syg_rtos\src\Eventgroup.c                0x00000000   Number         0  eventgroup.o ABSOLUTE
    syg_rtos\src\Semaphore.c                 0x00000000   Number         0  semaphore.o ABSOLUTE
    syg_rtos\src\port.c                      0x00000000   Number         0  port.o ABSOLUTE
    syg_rtos\src\queue.c                     0x00000000   Number         0  queue.o ABSOLUTE
    syg_rtos\src\softTimer.c                 0x00000000   Number         0  softtimer.o ABSOLUTE
    syg_rtos\src\task.c                      0x00000000   Number         0  task.o ABSOLUTE
    RESET                                    0x08000000   Section      236  startup_stm32f10x_md.o(RESET)
    .ARM.Collect$$$$00000000                 0x080000ec   Section        0  entry.o(.ARM.Collect$$$$00000000)
    .ARM.Collect$$$$00000001                 0x080000ec   Section        4  entry2.o(.ARM.Collect$$$$00000001)
    .ARM.Collect$$$$00000004                 0x080000f0   Section        4  entry5.o(.ARM.Collect$$$$00000004)
    .ARM.Collect$$$$00000008                 0x080000f4   Section        0  entry7b.o(.ARM.Collect$$$$00000008)
    .ARM.Collect$$$$0000000A                 0x080000f4   Section        0  entry8b.o(.ARM.Collect$$$$0000000A)
    .ARM.Collect$$$$0000000B                 0x080000f4   Section        8  entry9a.o(.ARM.Collect$$$$0000000B)
    .ARM.Collect$$$$0000000D                 0x080000fc   Section        0  entry10a.o(.ARM.Collect$$$$0000000D)
    .ARM.Collect$$$$0000000F                 0x080000fc   Section        0  entry11a.o(.ARM.Collect$$$$0000000F)
    .ARM.Collect$$$$00002712                 0x080000fc   Section        4  entry2.o(.ARM.Collect$$$$00002712)
    __lit__00000000                          0x080000fc   Data           4  entry2.o(.ARM.Collect$$$$00002712)
    .emb_text                                0x08000100   Section      336  port.o(.emb_text)
    .text                                    0x08000250   Section       36  startup_stm32f10x_md.o(.text)
    .text                                    0x08000274   Section        0  memcpya.o(.text)
    .text                                    0x08000298   Section        0  strcpy.o(.text)
    .text                                    0x080002ac   Section       36  init.o(.text)
    i.BusFault_Handler                       0x080002d0   Section        0  stm32f10x_it.o(i.BusFault_Handler)
    i.CreateTask                             0x080002d4   Section        0  task.o(i.CreateTask)
    i.DebugMon_Handler                       0x08000320   Section        0  stm32f10x_it.o(i.DebugMon_Handler)
    i.GPIO_Init                              0x08000322   Section        0  stm32f10x_gpio.o(i.GPIO_Init)
    i.HardFault_Handler                      0x08000438   Section        0  stm32f10x_it.o(i.HardFault_Handler)
    i.IDLE_task                              0x0800043c   Section        0  task.o(i.IDLE_task)
    IDLE_task                                0x0800043d   Thumb Code    38  task.o(i.IDLE_task)
    i.IRQ_config                             0x08000468   Section        0  port.o(i.IRQ_config)
    i.MemManage_Handler                      0x080004c8   Section        0  stm32f10x_it.o(i.MemManage_Handler)
    i.NMI_Handler                            0x080004cc   Section        0  stm32f10x_it.o(i.NMI_Handler)
    i.NVIC_Init                              0x080004d0   Section        0  misc.o(i.NVIC_Init)
    i.NVIC_PriorityGroupConfig               0x08000540   Section        0  misc.o(i.NVIC_PriorityGroupConfig)
    i.NVIC_SetPriority                       0x08000554   Section        0  port.o(i.NVIC_SetPriority)
    NVIC_SetPriority                         0x08000555   Thumb Code    32  port.o(i.NVIC_SetPriority)
    i.P_Current_TCB_Operation                0x0800057c   Section        0  task.o(i.P_Current_TCB_Operation)
    i.RCC_APB1PeriphClockCmd                 0x0800077c   Section        0  stm32f10x_rcc.o(i.RCC_APB1PeriphClockCmd)
    i.RCC_APB2PeriphClockCmd                 0x0800079c   Section        0  stm32f10x_rcc.o(i.RCC_APB2PeriphClockCmd)
    i.RCC_GetClocksFreq                      0x080007bc   Section        0  stm32f10x_rcc.o(i.RCC_GetClocksFreq)
    i.SetSysClock                            0x08000890   Section        0  system_stm32f10x.o(i.SetSysClock)
    SetSysClock                              0x08000891   Thumb Code     8  system_stm32f10x.o(i.SetSysClock)
    i.SetSysClockTo72                        0x08000898   Section        0  system_stm32f10x.o(i.SetSysClockTo72)
    SetSysClockTo72                          0x08000899   Thumb Code   214  system_stm32f10x.o(i.SetSysClockTo72)
    i.SysTick_Handler                        0x08000978   Section        0  port.o(i.SysTick_Handler)
    i.SystemCoreClockUpdate                  0x0800099c   Section        0  system_stm32f10x.o(i.SystemCoreClockUpdate)
    i.SystemInit                             0x08000a40   Section        0  system_stm32f10x.o(i.SystemInit)
    i.TCB_Operation                          0x08000aa0   Section        0  task.o(i.TCB_Operation)
    i.TIM2_IRQHandler                        0x08000d04   Section        0  timer.o(i.TIM2_IRQHandler)
    i.TIM2_IRQ_hook                          0x08000d20   Section        0  main.o(i.TIM2_IRQ_hook)
    i.TIM2_Init                              0x08000d48   Section        0  timer.o(i.TIM2_Init)
    i.TIM2_NVIC_Configuration                0x08000d92   Section        0  timer.o(i.TIM2_NVIC_Configuration)
    i.TIM_ClearITPendingBit                  0x08000db4   Section        0  stm32f10x_tim.o(i.TIM_ClearITPendingBit)
    i.TIM_Cmd                                0x08000dba   Section        0  stm32f10x_tim.o(i.TIM_Cmd)
    i.TIM_GetITStatus                        0x08000dd2   Section        0  stm32f10x_tim.o(i.TIM_GetITStatus)
    i.TIM_ITConfig                           0x08000df4   Section        0  stm32f10x_tim.o(i.TIM_ITConfig)
    i.TIM_TimeBaseInit                       0x08000e08   Section        0  stm32f10x_tim.o(i.TIM_TimeBaseInit)
    i.TaskExitError                          0x08000eac   Section        0  task.o(i.TaskExitError)
    i.USART_Cmd                              0x08000eb6   Section        0  stm32f10x_usart.o(i.USART_Cmd)
    i.USART_GetFlagStatus                    0x08000ece   Section        0  stm32f10x_usart.o(i.USART_GetFlagStatus)
    i.USART_Init                             0x08000ee8   Section        0  stm32f10x_usart.o(i.USART_Init)
    i.USART_SendData                         0x08000fc0   Section        0  stm32f10x_usart.o(i.USART_SendData)
    i.Uart1_init                             0x08000fc8   Section        0  uart.o(i.Uart1_init)
    i.UsageFault_Handler                     0x08001040   Section        0  stm32f10x_it.o(i.UsageFault_Handler)
    i.__0printf$2                            0x08001044   Section        0  printf2.o(i.__0printf$2)
    i.__scatterload_copy                     0x08001064   Section       14  handlers.o(i.__scatterload_copy)
    i.__scatterload_null                     0x08001072   Section        2  handlers.o(i.__scatterload_null)
    i.__scatterload_zeroinit                 0x08001074   Section       14  handlers.o(i.__scatterload_zeroinit)
    i._printf_core                           0x08001082   Section        0  printf2.o(i._printf_core)
    _printf_core                             0x08001083   Thumb Code   214  printf2.o(i._printf_core)
    i.check_TCB_timeout                      0x08001158   Section        0  task.o(i.check_TCB_timeout)
    check_TCB_timeout                        0x08001159   Thumb Code   156  task.o(i.check_TCB_timeout)
    i.fputc                                  0x08001204   Section        0  uart.o(i.fputc)
    i.get_TCB_by_ID                          0x08001228   Section        0  task.o(i.get_TCB_by_ID)
    get_TCB_by_ID                            0x08001229   Thumb Code    54  task.o(i.get_TCB_by_ID)
    i.get_TCB_by_ID                          0x08001264   Section        0  softtimer.o(i.get_TCB_by_ID)
    i.get_TCB_by_index                       0x0800129c   Section        0  task.o(i.get_TCB_by_index)
    get_TCB_by_index                         0x0800129d   Thumb Code   292  task.o(i.get_TCB_by_index)
    i.get_TCB_by_priorit                     0x080013c0   Section        0  task.o(i.get_TCB_by_priorit)
    get_TCB_by_priorit                       0x080013c1   Thumb Code    50  task.o(i.get_TCB_by_priorit)
    i.get_TCB_from_head                      0x080013f8   Section        0  task.o(i.get_TCB_from_head)
    get_TCB_from_head                        0x080013f9   Thumb Code    14  task.o(i.get_TCB_from_head)
    i.get_new_P_Current_TCB                  0x08001408   Section        0  task.o(i.get_new_P_Current_TCB)
    i.get_softTime_from_head                 0x08001420   Section        0  softtimer.o(i.get_softTime_from_head)
    i.get_softTimer_by_index                 0x0800142e   Section        0  softtimer.o(i.get_softTimer_by_index)
    i.increaseTick                           0x08001490   Section        0  task.o(i.increaseTick)
    i.is_heap_malloc                         0x080014ac   Section        0  port.o(i.is_heap_malloc)
    i.is_higher_priorit_TCB_Readly           0x080014c8   Section        0  task.o(i.is_higher_priorit_TCB_Readly)
    i.main                                   0x08001504   Section        0  main.o(i.main)
    i.memFree                                0x08001590   Section        0  port.o(i.memFree)
    i.memMalloc                              0x0800159c   Section        0  port.o(i.memMalloc)
    i.prvHeapInit                            0x080015a8   Section        0  heap_4.o(i.prvHeapInit)
    prvHeapInit                              0x080015a9   Thumb Code    98  heap_4.o(i.prvHeapInit)
    i.prvInsertBlockIntoFreeList             0x08001624   Section        0  heap_4.o(i.prvInsertBlockIntoFreeList)
    prvInsertBlockIntoFreeList               0x08001625   Thumb Code    96  heap_4.o(i.prvInsertBlockIntoFreeList)
    i.put_TCB_by_index                       0x0800168c   Section        0  task.o(i.put_TCB_by_index)
    put_TCB_by_index                         0x0800168d   Thumb Code   218  task.o(i.put_TCB_by_index)
    i.put_TCB_by_priorit                     0x08001766   Section        0  task.o(i.put_TCB_by_priorit)
    put_TCB_by_priorit                       0x08001767   Thumb Code    52  task.o(i.put_TCB_by_priorit)
    i.put_TCB_by_tick                        0x0800179a   Section        0  task.o(i.put_TCB_by_tick)
    put_TCB_by_tick                          0x0800179b   Thumb Code    46  task.o(i.put_TCB_by_tick)
    i.put_TCB_to_back                        0x080017c8   Section        0  task.o(i.put_TCB_to_back)
    put_TCB_to_back                          0x080017c9   Thumb Code    22  task.o(i.put_TCB_to_back)
    i.put_softTimer_by_index                 0x080017de   Section        0  softtimer.o(i.put_softTimer_by_index)
    i.put_soft_timer_by_tick                 0x08001824   Section        0  softtimer.o(i.put_soft_timer_by_tick)
    i.pvPortMalloc                           0x08001850   Section        0  heap_4.o(i.pvPortMalloc)
    i.queueCreate                            0x08001964   Section        0  queue.o(i.queueCreate)
    i.queueReceive                           0x080019a4   Section        0  queue.o(i.queueReceive)
    i.queueSend                              0x08001a7c   Section        0  queue.o(i.queueSend)
    i.restore_Critical_status                0x08001b5c   Section        0  task.o(i.restore_Critical_status)
    i.resumeScheduler                        0x08001b78   Section        0  task.o(i.resumeScheduler)
    i.softTimerTask                          0x08001b90   Section        0  softtimer.o(i.softTimerTask)
    i.soft_timer_command_process             0x08001c58   Section        0  softtimer.o(i.soft_timer_command_process)
    i.stack_init                             0x08001d24   Section        0  port.o(i.stack_init)
    i.startScheduler                         0x08001d64   Section        0  task.o(i.startScheduler)
    i.staticCreateTask                       0x08001dec   Section        0  task.o(i.staticCreateTask)
    i.staticQueueCreate                      0x08001ea4   Section        0  queue.o(i.staticQueueCreate)
    i.suspendScheduler                       0x08001f0c   Section        0  task.o(i.suspendScheduler)
    i.switch_context_SVC                     0x08001f24   Section        0  port.o(i.switch_context_SVC)
    i.switch_context_pendSV                  0x08001f2a   Section        0  port.o(i.switch_context_pendSV)
    i.task1                                  0x08001f30   Section        0  main.o(i.task1)
    i.task2                                  0x08001f68   Section        0  main.o(i.task2)
    i.taskDelay                              0x08001f7c   Section        0  task.o(i.taskDelay)
    i.taskDelete                             0x08001fa4   Section        0  task.o(i.taskDelete)
    i.vPortFree                              0x08001ffc   Section        0  heap_4.o(i.vPortFree)
    .data                                    0x20000000   Section       20  system_stm32f10x.o(.data)
    .data                                    0x20000014   Section       20  stm32f10x_rcc.o(.data)
    APBAHBPrescTable                         0x20000014   Data          16  stm32f10x_rcc.o(.data)
    ADCPrescTable                            0x20000024   Data           4  stm32f10x_rcc.o(.data)
    .data                                    0x20000028   Section        3  main.o(.data)
    .data                                    0x2000002c   Section        9  task.o(.data)
    .data                                    0x20000038   Section       32  heap_4.o(.data)
    xStart                                   0x20000038   Data           8  heap_4.o(.data)
    pxEnd                                    0x20000040   Data           4  heap_4.o(.data)
    xFreeBytesRemaining                      0x20000044   Data           4  heap_4.o(.data)
    xMinimumEverFreeBytesRemaining           0x20000048   Data           4  heap_4.o(.data)
    xNumberOfSuccessfulAllocations           0x2000004c   Data           4  heap_4.o(.data)
    xNumberOfSuccessfulFrees                 0x20000050   Data           4  heap_4.o(.data)
    xBlockAllocatedBit                       0x20000054   Data           4  heap_4.o(.data)
    .data                                    0x20000058   Section        4  stdout.o(.data)
    .bss                                     0x2000005c   Section      676  task.o(.bss)
    TCB_ID_pool                              0x2000005c   Data          40  task.o(.bss)
    TCB_suspend_head                         0x20000204   Data          12  task.o(.bss)
    TCB_death_head                           0x2000021c   Data          12  task.o(.bss)
    IDLE_TCB                                 0x20000228   Data          88  task.o(.bss)
    IDLE_stack_buff                          0x20000280   Data         128  task.o(.bss)
    .bss                                     0x20000300   Section       40  queue.o(.bss)
    .bss                                     0x20000328   Section     8192  heap_4.o(.bss)
    .bss                                     0x20002328   Section       40  eventgroup.o(.bss)
    .bss                                     0x20002350   Section      408  softtimer.o(.bss)
    STACK                                    0x200024e8   Section     1280  startup_stm32f10x_md.o(STACK)

    Global Symbols

    Symbol Name                              Value     Ov Type        Size  Object(Section)

    BuildAttributes$$THM_ISAv4$P$D$K$B$S$PE$A:L22UL41UL21$X:L11$S22US41US21$IEEE1$IW$USESV6$~STKCKD$USESV7$~SHL$OSPACE$ROPI$EBA8$MICROLIB$REQ8$PRES8$EABIv2 0x00000000   Number         0  anon$$obj.o ABSOLUTE
    __ARM_use_no_argv                        0x00000000   Number         0  main.o ABSOLUTE
    _printf_a                                0x00000000   Number         0  stubs.o ABSOLUTE
    _printf_c                                0x00000000   Number         0  stubs.o ABSOLUTE
    _printf_charcount                        0x00000000   Number         0  stubs.o ABSOLUTE
    _printf_d                                0x00000000   Number         0  stubs.o ABSOLUTE
    _printf_e                                0x00000000   Number         0  stubs.o ABSOLUTE
    _printf_f                                0x00000000   Number         0  stubs.o ABSOLUTE
    _printf_flags                            0x00000000   Number         0  stubs.o ABSOLUTE
    _printf_fp_dec                           0x00000000   Number         0  stubs.o ABSOLUTE
    _printf_fp_hex                           0x00000000   Number         0  stubs.o ABSOLUTE
    _printf_g                                0x00000000   Number         0  stubs.o ABSOLUTE
    _printf_i                                0x00000000   Number         0  stubs.o ABSOLUTE
    _printf_int_dec                          0x00000000   Number         0  stubs.o ABSOLUTE
    _printf_l                                0x00000000   Number         0  stubs.o ABSOLUTE
    _printf_lc                               0x00000000   Number         0  stubs.o ABSOLUTE
    _printf_ll                               0x00000000   Number         0  stubs.o ABSOLUTE
    _printf_lld                              0x00000000   Number         0  stubs.o ABSOLUTE
    _printf_lli                              0x00000000   Number         0  stubs.o ABSOLUTE
    _printf_llo                              0x00000000   Number         0  stubs.o ABSOLUTE
    _printf_llu                              0x00000000   Number         0  stubs.o ABSOLUTE
    _printf_llx                              0x00000000   Number         0  stubs.o ABSOLUTE
    _printf_longlong_dec                     0x00000000   Number         0  stubs.o ABSOLUTE
    _printf_longlong_hex                     0x00000000   Number         0  stubs.o ABSOLUTE
    _printf_longlong_oct                     0x00000000   Number         0  stubs.o ABSOLUTE
    _printf_ls                               0x00000000   Number         0  stubs.o ABSOLUTE
    _printf_mbtowc                           0x00000000   Number         0  stubs.o ABSOLUTE
    _printf_n                                0x00000000   Number         0  stubs.o ABSOLUTE
    _printf_o                                0x00000000   Number         0  stubs.o ABSOLUTE
    _printf_p                                0x00000000   Number         0  stubs.o ABSOLUTE
    _printf_percent                          0x00000000   Number         0  stubs.o ABSOLUTE
    _printf_pre_padding                      0x00000000   Number         0  stubs.o ABSOLUTE
    _printf_return_value                     0x00000000   Number         0  stubs.o ABSOLUTE
    _printf_s                                0x00000000   Number         0  stubs.o ABSOLUTE
    _printf_sizespec                         0x00000000   Number         0  stubs.o ABSOLUTE
    _printf_str                              0x00000000   Number         0  stubs.o ABSOLUTE
    _printf_truncate_signed                  0x00000000   Number         0  stubs.o ABSOLUTE
    _printf_truncate_unsigned                0x00000000   Number         0  stubs.o ABSOLUTE
    _printf_u                                0x00000000   Number         0  stubs.o ABSOLUTE
    _printf_wc                               0x00000000   Number         0  stubs.o ABSOLUTE
    _printf_wctomb                           0x00000000   Number         0  stubs.o ABSOLUTE
    _printf_widthprec                        0x00000000   Number         0  stubs.o ABSOLUTE
    _printf_x                                0x00000000   Number         0  stubs.o ABSOLUTE
    __cpp_initialize__aeabi_                  - Undefined Weak Reference
    __cxa_finalize                            - Undefined Weak Reference
    __decompress                              - Undefined Weak Reference
    _clock_init                               - Undefined Weak Reference
    _microlib_exit                            - Undefined Weak Reference
    __Vectors_Size                           0x000000ec   Number         0  startup_stm32f10x_md.o ABSOLUTE
    __Vectors                                0x08000000   Data           4  startup_stm32f10x_md.o(RESET)
    __Vectors_End                            0x080000ec   Data           0  startup_stm32f10x_md.o(RESET)
    __main                                   0x080000ed   Thumb Code     0  entry.o(.ARM.Collect$$$$00000000)
    _main_stk                                0x080000ed   Thumb Code     0  entry2.o(.ARM.Collect$$$$00000001)
    _main_scatterload                        0x080000f1   Thumb Code     0  entry5.o(.ARM.Collect$$$$00000004)
    __main_after_scatterload                 0x080000f5   Thumb Code     0  entry5.o(.ARM.Collect$$$$00000004)
    _main_clock                              0x080000f5   Thumb Code     0  entry7b.o(.ARM.Collect$$$$00000008)
    _main_cpp_init                           0x080000f5   Thumb Code     0  entry8b.o(.ARM.Collect$$$$0000000A)
    _main_init                               0x080000f5   Thumb Code     0  entry9a.o(.ARM.Collect$$$$0000000B)
    __rt_final_cpp                           0x080000fd   Thumb Code     0  entry10a.o(.ARM.Collect$$$$0000000D)
    __rt_final_exit                          0x080000fd   Thumb Code     0  entry11a.o(.ARM.Collect$$$$0000000F)
    enter_Critical_from_IRQ                  0x08000101   Thumb Code    14  port.o(.emb_text)
    out_Critical_from_IRQ                    0x0800010f   Thumb Code    14  port.o(.emb_text)
    trig_pendSV                              0x0800011d   Thumb Code    18  port.o(.emb_text)
    switch_context                           0x08000135   Thumb Code    86  port.o(.emb_text)
    enter_Critical                           0x08000195   Thumb Code    16  port.o(.emb_text)
    out_Critical                             0x080001a9   Thumb Code    16  port.o(.emb_text)
    is_in_IRQ                                0x080001bd   Thumb Code    14  port.o(.emb_text)
    startFristTask                           0x080001cb   Thumb Code    54  port.o(.emb_text)
    SVC_Handler                              0x08000205   Thumb Code    52  port.o(.emb_text)
    PendSV_Handler                           0x08000249   Thumb Code     4  port.o(.emb_text)
    Reset_Handler                            0x08000251   Thumb Code     8  startup_stm32f10x_md.o(.text)
    ADC1_2_IRQHandler                        0x0800026b   Thumb Code     0  startup_stm32f10x_md.o(.text)
    CAN1_RX1_IRQHandler                      0x0800026b   Thumb Code     0  startup_stm32f10x_md.o(.text)
    CAN1_SCE_IRQHandler                      0x0800026b   Thumb Code     0  startup_stm32f10x_md.o(.text)
    DMA1_Channel1_IRQHandler                 0x0800026b   Thumb Code     0  startup_stm32f10x_md.o(.text)
    DMA1_Channel2_IRQHandler                 0x0800026b   Thumb Code     0  startup_stm32f10x_md.o(.text)
    DMA1_Channel3_IRQHandler                 0x0800026b   Thumb Code     0  startup_stm32f10x_md.o(.text)
    DMA1_Channel4_IRQHandler                 0x0800026b   Thumb Code     0  startup_stm32f10x_md.o(.text)
    DMA1_Channel5_IRQHandler                 0x0800026b   Thumb Code     0  startup_stm32f10x_md.o(.text)
    DMA1_Channel6_IRQHandler                 0x0800026b   Thumb Code     0  startup_stm32f10x_md.o(.text)
    DMA1_Channel7_IRQHandler                 0x0800026b   Thumb Code     0  startup_stm32f10x_md.o(.text)
    EXTI0_IRQHandler                         0x0800026b   Thumb Code     0  startup_stm32f10x_md.o(.text)
    EXTI15_10_IRQHandler                     0x0800026b   Thumb Code     0  startup_stm32f10x_md.o(.text)
    EXTI1_IRQHandler                         0x0800026b   Thumb Code     0  startup_stm32f10x_md.o(.text)
    EXTI2_IRQHandler                         0x0800026b   Thumb Code     0  startup_stm32f10x_md.o(.text)
    EXTI3_IRQHandler                         0x0800026b   Thumb Code     0  startup_stm32f10x_md.o(.text)
    EXTI4_IRQHandler                         0x0800026b   Thumb Code     0  startup_stm32f10x_md.o(.text)
    EXTI9_5_IRQHandler                       0x0800026b   Thumb Code     0  startup_stm32f10x_md.o(.text)
    FLASH_IRQHandler                         0x0800026b   Thumb Code     0  startup_stm32f10x_md.o(.text)
    I2C1_ER_IRQHandler                       0x0800026b   Thumb Code     0  startup_stm32f10x_md.o(.text)
    I2C1_EV_IRQHandler                       0x0800026b   Thumb Code     0  startup_stm32f10x_md.o(.text)
    I2C2_ER_IRQHandler                       0x0800026b   Thumb Code     0  startup_stm32f10x_md.o(.text)
    I2C2_EV_IRQHandler                       0x0800026b   Thumb Code     0  startup_stm32f10x_md.o(.text)
    PVD_IRQHandler                           0x0800026b   Thumb Code     0  startup_stm32f10x_md.o(.text)
    RCC_IRQHandler                           0x0800026b   Thumb Code     0  startup_stm32f10x_md.o(.text)
    RTCAlarm_IRQHandler                      0x0800026b   Thumb Code     0  startup_stm32f10x_md.o(.text)
    RTC_IRQHandler                           0x0800026b   Thumb Code     0  startup_stm32f10x_md.o(.text)
    SPI1_IRQHandler                          0x0800026b   Thumb Code     0  startup_stm32f10x_md.o(.text)
    SPI2_IRQHandler                          0x0800026b   Thumb Code     0  startup_stm32f10x_md.o(.text)
    TAMPER_IRQHandler                        0x0800026b   Thumb Code     0  startup_stm32f10x_md.o(.text)
    TIM1_BRK_IRQHandler                      0x0800026b   Thumb Code     0  startup_stm32f10x_md.o(.text)
    TIM1_CC_IRQHandler                       0x0800026b   Thumb Code     0  startup_stm32f10x_md.o(.text)
    TIM1_TRG_COM_IRQHandler                  0x0800026b   Thumb Code     0  startup_stm32f10x_md.o(.text)
    TIM1_UP_IRQHandler                       0x0800026b   Thumb Code     0  startup_stm32f10x_md.o(.text)
    TIM3_IRQHandler                          0x0800026b   Thumb Code     0  startup_stm32f10x_md.o(.text)
    TIM4_IRQHandler                          0x0800026b   Thumb Code     0  startup_stm32f10x_md.o(.text)
    USART1_IRQHandler                        0x0800026b   Thumb Code     0  startup_stm32f10x_md.o(.text)
    USART2_IRQHandler                        0x0800026b   Thumb Code     0  startup_stm32f10x_md.o(.text)
    USART3_IRQHandler                        0x0800026b   Thumb Code     0  startup_stm32f10x_md.o(.text)
    USBWakeUp_IRQHandler                     0x0800026b   Thumb Code     0  startup_stm32f10x_md.o(.text)
    USB_HP_CAN1_TX_IRQHandler                0x0800026b   Thumb Code     0  startup_stm32f10x_md.o(.text)
    USB_LP_CAN1_RX0_IRQHandler               0x0800026b   Thumb Code     0  startup_stm32f10x_md.o(.text)
    WWDG_IRQHandler                          0x0800026b   Thumb Code     0  startup_stm32f10x_md.o(.text)
    __aeabi_memcpy                           0x08000275   Thumb Code    36  memcpya.o(.text)
    __aeabi_memcpy4                          0x08000275   Thumb Code     0  memcpya.o(.text)
    __aeabi_memcpy8                          0x08000275   Thumb Code     0  memcpya.o(.text)
    strcpy                                   0x08000299   Thumb Code    18  strcpy.o(.text)
    __scatterload                            0x080002ad   Thumb Code    28  init.o(.text)
    __scatterload_rt2                        0x080002ad   Thumb Code     0  init.o(.text)
    BusFault_Handler                         0x080002d1   Thumb Code     4  stm32f10x_it.o(i.BusFault_Handler)
    CreateTask                               0x080002d5   Thumb Code    76  task.o(i.CreateTask)
    DebugMon_Handler                         0x08000321   Thumb Code     2  stm32f10x_it.o(i.DebugMon_Handler)
    GPIO_Init                                0x08000323   Thumb Code   278  stm32f10x_gpio.o(i.GPIO_Init)
    HardFault_Handler                        0x08000439   Thumb Code     4  stm32f10x_it.o(i.HardFault_Handler)
    IRQ_config                               0x08000469   Thumb Code    92  port.o(i.IRQ_config)
    MemManage_Handler                        0x080004c9   Thumb Code     4  stm32f10x_it.o(i.MemManage_Handler)
    NMI_Handler                              0x080004cd   Thumb Code     2  stm32f10x_it.o(i.NMI_Handler)
    NVIC_Init                                0x080004d1   Thumb Code   100  misc.o(i.NVIC_Init)
    NVIC_PriorityGroupConfig                 0x08000541   Thumb Code    10  misc.o(i.NVIC_PriorityGroupConfig)
    P_Current_TCB_Operation                  0x0800057d   Thumb Code   480  task.o(i.P_Current_TCB_Operation)
    RCC_APB1PeriphClockCmd                   0x0800077d   Thumb Code    26  stm32f10x_rcc.o(i.RCC_APB1PeriphClockCmd)
    RCC_APB2PeriphClockCmd                   0x0800079d   Thumb Code    26  stm32f10x_rcc.o(i.RCC_APB2PeriphClockCmd)
    RCC_GetClocksFreq                        0x080007bd   Thumb Code   192  stm32f10x_rcc.o(i.RCC_GetClocksFreq)
    SysTick_Handler                          0x08000979   Thumb Code    30  port.o(i.SysTick_Handler)
    SystemCoreClockUpdate                    0x0800099d   Thumb Code   142  system_stm32f10x.o(i.SystemCoreClockUpdate)
    SystemInit                               0x08000a41   Thumb Code    78  system_stm32f10x.o(i.SystemInit)
    TCB_Operation                            0x08000aa1   Thumb Code   580  task.o(i.TCB_Operation)
    TIM2_IRQHandler                          0x08000d05   Thumb Code    26  timer.o(i.TIM2_IRQHandler)
    TIM2_IRQ_hook                            0x08000d21   Thumb Code    28  main.o(i.TIM2_IRQ_hook)
    TIM2_Init                                0x08000d49   Thumb Code    74  timer.o(i.TIM2_Init)
    TIM2_NVIC_Configuration                  0x08000d93   Thumb Code    34  timer.o(i.TIM2_NVIC_Configuration)
    TIM_ClearITPendingBit                    0x08000db5   Thumb Code     6  stm32f10x_tim.o(i.TIM_ClearITPendingBit)
    TIM_Cmd                                  0x08000dbb   Thumb Code    24  stm32f10x_tim.o(i.TIM_Cmd)
    TIM_GetITStatus                          0x08000dd3   Thumb Code    34  stm32f10x_tim.o(i.TIM_GetITStatus)
    TIM_ITConfig                             0x08000df5   Thumb Code    18  stm32f10x_tim.o(i.TIM_ITConfig)
    TIM_TimeBaseInit                         0x08000e09   Thumb Code   122  stm32f10x_tim.o(i.TIM_TimeBaseInit)
    TaskExitError                            0x08000ead   Thumb Code    10  task.o(i.TaskExitError)
    USART_Cmd                                0x08000eb7   Thumb Code    24  stm32f10x_usart.o(i.USART_Cmd)
    USART_GetFlagStatus                      0x08000ecf   Thumb Code    26  stm32f10x_usart.o(i.USART_GetFlagStatus)
    USART_Init                               0x08000ee9   Thumb Code   210  stm32f10x_usart.o(i.USART_Init)
    USART_SendData                           0x08000fc1   Thumb Code     8  stm32f10x_usart.o(i.USART_SendData)
    Uart1_init                               0x08000fc9   Thumb Code   112  uart.o(i.Uart1_init)
    UsageFault_Handler                       0x08001041   Thumb Code     4  stm32f10x_it.o(i.UsageFault_Handler)
    __0printf$2                              0x08001045   Thumb Code    22  printf2.o(i.__0printf$2)
    __1printf$2                              0x08001045   Thumb Code     0  printf2.o(i.__0printf$2)
    __2printf                                0x08001045   Thumb Code     0  printf2.o(i.__0printf$2)
    __scatterload_copy                       0x08001065   Thumb Code    14  handlers.o(i.__scatterload_copy)
    __scatterload_null                       0x08001073   Thumb Code     2  handlers.o(i.__scatterload_null)
    __scatterload_zeroinit                   0x08001075   Thumb Code    14  handlers.o(i.__scatterload_zeroinit)
    fputc                                    0x08001205   Thumb Code    32  uart.o(i.fputc)
    get_TCB_by_ID                            0x08001265   Thumb Code    50  softtimer.o(i.get_TCB_by_ID)
    get_new_P_Current_TCB                    0x08001409   Thumb Code    20  task.o(i.get_new_P_Current_TCB)
    get_softTime_from_head                   0x08001421   Thumb Code    14  softtimer.o(i.get_softTime_from_head)
    get_softTimer_by_index                   0x0800142f   Thumb Code    96  softtimer.o(i.get_softTimer_by_index)
    increaseTick                             0x08001491   Thumb Code    20  task.o(i.increaseTick)
    is_heap_malloc                           0x080014ad   Thumb Code    24  port.o(i.is_heap_malloc)
    is_higher_priorit_TCB_Readly             0x080014c9   Thumb Code    52  task.o(i.is_higher_priorit_TCB_Readly)
    main                                     0x08001505   Thumb Code    88  main.o(i.main)
    memFree                                  0x08001591   Thumb Code    12  port.o(i.memFree)
    memMalloc                                0x0800159d   Thumb Code    12  port.o(i.memMalloc)
    put_softTimer_by_index                   0x080017df   Thumb Code    70  softtimer.o(i.put_softTimer_by_index)
    put_soft_timer_by_tick                   0x08001825   Thumb Code    42  softtimer.o(i.put_soft_timer_by_tick)
    pvPortMalloc                             0x08001851   Thumb Code   252  heap_4.o(i.pvPortMalloc)
    queueCreate                              0x08001965   Thumb Code    64  queue.o(i.queueCreate)
    queueReceive                             0x080019a5   Thumb Code   210  queue.o(i.queueReceive)
    queueSend                                0x08001a7d   Thumb Code   220  queue.o(i.queueSend)
    restore_Critical_status                  0x08001b5d   Thumb Code    24  task.o(i.restore_Critical_status)
    resumeScheduler                          0x08001b79   Thumb Code    20  task.o(i.resumeScheduler)
    softTimerTask                            0x08001b91   Thumb Code   184  softtimer.o(i.softTimerTask)
    soft_timer_command_process               0x08001c59   Thumb Code   192  softtimer.o(i.soft_timer_command_process)
    stack_init                               0x08001d25   Thumb Code    58  port.o(i.stack_init)
    startScheduler                           0x08001d65   Thumb Code    80  task.o(i.startScheduler)
    staticCreateTask                         0x08001ded   Thumb Code   174  task.o(i.staticCreateTask)
    staticQueueCreate                        0x08001ea5   Thumb Code    98  queue.o(i.staticQueueCreate)
    suspendScheduler                         0x08001f0d   Thumb Code    20  task.o(i.suspendScheduler)
    switch_context_SVC                       0x08001f25   Thumb Code     6  port.o(i.switch_context_SVC)
    switch_context_pendSV                    0x08001f2b   Thumb Code     6  port.o(i.switch_context_pendSV)
    task1                                    0x08001f31   Thumb Code    46  main.o(i.task1)
    task2                                    0x08001f69   Thumb Code    16  main.o(i.task2)
    taskDelay                                0x08001f7d   Thumb Code    40  task.o(i.taskDelay)
    taskDelete                               0x08001fa5   Thumb Code    82  task.o(i.taskDelete)
    vPortFree                                0x08001ffd   Thumb Code   114  heap_4.o(i.vPortFree)
    Region$$Table$$Base                      0x0800207c   Number         0  anon$$obj.o(Region$$Table)
    Region$$Table$$Limit                     0x0800209c   Number         0  anon$$obj.o(Region$$Table)
    SystemCoreClock                          0x20000000   Data           4  system_stm32f10x.o(.data)
    AHBPrescTable                            0x20000004   Data          16  system_stm32f10x.o(.data)
    queue_ID                                 0x20000028   Data           1  main.o(.data)
    task1_ID                                 0x20000029   Data           1  main.o(.data)
    task2_ID                                 0x2000002a   Data           1  main.o(.data)
    Current_Tick                             0x2000002c   Data           4  task.o(.data)
    P_Current_TCB                            0x20000030   Data           4  task.o(.data)
    is_suspend_Scheduler                     0x20000034   Data           1  task.o(.data)
    __stdout                                 0x20000058   Data           4  stdout.o(.data)
    TCB_readly_table                         0x20000084   Data         384  task.o(.bss)
    TCB_delay_block_head                     0x20000210   Data          12  task.o(.bss)
    queue_ID_pool                            0x20000300   Data          40  queue.o(.bss)
    ucHeap                                   0x20000328   Data        8192  heap_4.o(.bss)
    eventgroup_ID_pool                       0x20002328   Data          40  eventgroup.o(.bss)
    softTimer_t_ID_pool                      0x20002350   Data          40  softtimer.o(.bss)
    softTimer_command_queue                  0x20002378   Data          60  softtimer.o(.bss)
    softTimer_command_queue_buff             0x200023b4   Data          80  softtimer.o(.bss)
    soft_timer_head                          0x20002404   Data          12  softtimer.o(.bss)
    softTimerTask_TCB                        0x20002410   Data          88  softtimer.o(.bss)
    softTimerTask_stack                      0x20002468   Data         128  softtimer.o(.bss)
    __initial_sp                             0x200029e8   Data           0  startup_stm32f10x_md.o(STACK)



==============================================================================

Memory Map of the image

  Image Entry point : 0x080000ed

  Load Region LR_IROM1 (Base: 0x08000000, Size: 0x000020f8, Max: 0x00010000, ABSOLUTE)

    Execution Region ER_IROM1 (Exec base: 0x08000000, Load base: 0x08000000, Size: 0x0000209c, Max: 0x00010000, ABSOLUTE)

    Exec Addr    Load Addr    Size         Type   Attr      Idx    E Section Name        Object

    0x08000000   0x08000000   0x000000ec   Data   RO            3    RESET               startup_stm32f10x_md.o
    0x080000ec   0x080000ec   0x00000000   Code   RO         4074  * .ARM.Collect$$$$00000000  mc_w.l(entry.o)
    0x080000ec   0x080000ec   0x00000004   Code   RO         4344    .ARM.Collect$$$$00000001  mc_w.l(entry2.o)
    0x080000f0   0x080000f0   0x00000004   Code   RO         4347    .ARM.Collect$$$$00000004  mc_w.l(entry5.o)
    0x080000f4   0x080000f4   0x00000000   Code   RO         4349    .ARM.Collect$$$$00000008  mc_w.l(entry7b.o)
    0x080000f4   0x080000f4   0x00000000   Code   RO         4351    .ARM.Collect$$$$0000000A  mc_w.l(entry8b.o)
    0x080000f4   0x080000f4   0x00000008   Code   RO         4352    .ARM.Collect$$$$0000000B  mc_w.l(entry9a.o)
    0x080000fc   0x080000fc   0x00000000   Code   RO         4354    .ARM.Collect$$$$0000000D  mc_w.l(entry10a.o)
    0x080000fc   0x080000fc   0x00000000   Code   RO         4356    .ARM.Collect$$$$0000000F  mc_w.l(entry11a.o)
    0x080000fc   0x080000fc   0x00000004   Code   RO         4345    .ARM.Collect$$$$00002712  mc_w.l(entry2.o)
    0x08000100   0x08000100   0x00000150   Code   RO         3859    .emb_text           port.o
    0x08000250   0x08000250   0x00000024   Code   RO            4    .text               startup_stm32f10x_md.o
    0x08000274   0x08000274   0x00000024   Code   RO         4077    .text               mc_w.l(memcpya.o)
    0x08000298   0x08000298   0x00000012   Code   RO         4079    .text               mc_w.l(strcpy.o)
    0x080002aa   0x080002aa   0x00000002   PAD
    0x080002ac   0x080002ac   0x00000024   Code   RO         4374    .text               mc_w.l(init.o)
    0x080002d0   0x080002d0   0x00000004   Code   RO         3341    i.BusFault_Handler  stm32f10x_it.o
    0x080002d4   0x080002d4   0x0000004c   Code   RO         3458    i.CreateTask        task.o
    0x08000320   0x08000320   0x00000002   Code   RO         3342    i.DebugMon_Handler  stm32f10x_it.o
    0x08000322   0x08000322   0x00000116   Code   RO         1347    i.GPIO_Init         stm32f10x_gpio.o
    0x08000438   0x08000438   0x00000004   Code   RO         3343    i.HardFault_Handler  stm32f10x_it.o
    0x0800043c   0x0800043c   0x0000002c   Code   RO         3459    i.IDLE_task         task.o
    0x08000468   0x08000468   0x00000060   Code   RO         3860    i.IRQ_config        port.o
    0x080004c8   0x080004c8   0x00000004   Code   RO         3344    i.MemManage_Handler  stm32f10x_it.o
    0x080004cc   0x080004cc   0x00000002   Code   RO         3345    i.NMI_Handler       stm32f10x_it.o
    0x080004ce   0x080004ce   0x00000002   PAD
    0x080004d0   0x080004d0   0x00000070   Code   RO          137    i.NVIC_Init         misc.o
    0x08000540   0x08000540   0x00000014   Code   RO          138    i.NVIC_PriorityGroupConfig  misc.o
    0x08000554   0x08000554   0x00000028   Code   RO         3861    i.NVIC_SetPriority  port.o
    0x0800057c   0x0800057c   0x00000200   Code   RO         3460    i.P_Current_TCB_Operation  task.o
    0x0800077c   0x0800077c   0x00000020   Code   RO         1775    i.RCC_APB1PeriphClockCmd  stm32f10x_rcc.o
    0x0800079c   0x0800079c   0x00000020   Code   RO         1777    i.RCC_APB2PeriphClockCmd  stm32f10x_rcc.o
    0x080007bc   0x080007bc   0x000000d4   Code   RO         1785    i.RCC_GetClocksFreq  stm32f10x_rcc.o
    0x08000890   0x08000890   0x00000008   Code   RO           24    i.SetSysClock       system_stm32f10x.o
    0x08000898   0x08000898   0x000000e0   Code   RO           25    i.SetSysClockTo72   system_stm32f10x.o
    0x08000978   0x08000978   0x00000024   Code   RO         3862    i.SysTick_Handler   port.o
    0x0800099c   0x0800099c   0x000000a4   Code   RO           26    i.SystemCoreClockUpdate  system_stm32f10x.o
    0x08000a40   0x08000a40   0x00000060   Code   RO           27    i.SystemInit        system_stm32f10x.o
    0x08000aa0   0x08000aa0   0x00000264   Code   RO         3461    i.TCB_Operation     task.o
    0x08000d04   0x08000d04   0x0000001a   Code   RO         3426    i.TIM2_IRQHandler   timer.o
    0x08000d1e   0x08000d1e   0x00000002   PAD
    0x08000d20   0x08000d20   0x00000028   Code   RO         3196    i.TIM2_IRQ_hook     main.o
    0x08000d48   0x08000d48   0x0000004a   Code   RO         3427    i.TIM2_Init         timer.o
    0x08000d92   0x08000d92   0x00000022   Code   RO         3428    i.TIM2_NVIC_Configuration  timer.o
    0x08000db4   0x08000db4   0x00000006   Code   RO         2416    i.TIM_ClearITPendingBit  stm32f10x_tim.o
    0x08000dba   0x08000dba   0x00000018   Code   RO         2421    i.TIM_Cmd           stm32f10x_tim.o
    0x08000dd2   0x08000dd2   0x00000022   Code   RO         2442    i.TIM_GetITStatus   stm32f10x_tim.o
    0x08000df4   0x08000df4   0x00000012   Code   RO         2446    i.TIM_ITConfig      stm32f10x_tim.o
    0x08000e06   0x08000e06   0x00000002   PAD
    0x08000e08   0x08000e08   0x000000a4   Code   RO         2492    i.TIM_TimeBaseInit  stm32f10x_tim.o
    0x08000eac   0x08000eac   0x0000000a   Code   RO         3463    i.TaskExitError     task.o
    0x08000eb6   0x08000eb6   0x00000018   Code   RO         2960    i.USART_Cmd         stm32f10x_usart.o
    0x08000ece   0x08000ece   0x0000001a   Code   RO         2963    i.USART_GetFlagStatus  stm32f10x_usart.o
    0x08000ee8   0x08000ee8   0x000000d8   Code   RO         2967    i.USART_Init        stm32f10x_usart.o
    0x08000fc0   0x08000fc0   0x00000008   Code   RO         2977    i.USART_SendData    stm32f10x_usart.o
    0x08000fc8   0x08000fc8   0x00000078   Code   RO         3404    i.Uart1_init        uart.o
    0x08001040   0x08001040   0x00000004   Code   RO         3346    i.UsageFault_Handler  stm32f10x_it.o
    0x08001044   0x08001044   0x00000020   Code   RO         4150    i.__0printf$2       mc_w.l(printf2.o)
    0x08001064   0x08001064   0x0000000e   Code   RO         4386    i.__scatterload_copy  mc_w.l(handlers.o)
    0x08001072   0x08001072   0x00000002   Code   RO         4387    i.__scatterload_null  mc_w.l(handlers.o)
    0x08001074   0x08001074   0x0000000e   Code   RO         4388    i.__scatterload_zeroinit  mc_w.l(handlers.o)
    0x08001082   0x08001082   0x000000d6   Code   RO         4157    i._printf_core      mc_w.l(printf2.o)
    0x08001158   0x08001158   0x000000ac   Code   RO         3464    i.check_TCB_timeout  task.o
    0x08001204   0x08001204   0x00000024   Code   RO         3405    i.fputc             uart.o
    0x08001228   0x08001228   0x0000003c   Code   RO         3465    i.get_TCB_by_ID     task.o
    0x08001264   0x08001264   0x00000038   Code   RO         3978    i.get_TCB_by_ID     softtimer.o
    0x0800129c   0x0800129c   0x00000124   Code   RO         3466    i.get_TCB_by_index  task.o
    0x080013c0   0x080013c0   0x00000038   Code   RO         3467    i.get_TCB_by_priorit  task.o
    0x080013f8   0x080013f8   0x0000000e   Code   RO         3468    i.get_TCB_from_head  task.o
    0x08001406   0x08001406   0x00000002   PAD
    0x08001408   0x08001408   0x00000018   Code   RO         3469    i.get_new_P_Current_TCB  task.o
    0x08001420   0x08001420   0x0000000e   Code   RO         3979    i.get_softTime_from_head  softtimer.o
    0x0800142e   0x0800142e   0x00000060   Code   RO         3980    i.get_softTimer_by_index  softtimer.o
    0x0800148e   0x0800148e   0x00000002   PAD
    0x08001490   0x08001490   0x0000001c   Code   RO         3470    i.increaseTick      task.o
    0x080014ac   0x080014ac   0x0000001c   Code   RO         3863    i.is_heap_malloc    port.o
    0x080014c8   0x080014c8   0x0000003c   Code   RO         3472    i.is_higher_priorit_TCB_Readly  task.o
    0x08001504   0x08001504   0x0000008c   Code   RO         3197    i.main              main.o
    0x08001590   0x08001590   0x0000000c   Code   RO         3864    i.memFree           port.o
    0x0800159c   0x0800159c   0x0000000c   Code   RO         3865    i.memMalloc         port.o
    0x080015a8   0x080015a8   0x0000007c   Code   RO         3713    i.prvHeapInit       heap_4.o
    0x08001624   0x08001624   0x00000068   Code   RO         3714    i.prvInsertBlockIntoFreeList  heap_4.o
    0x0800168c   0x0800168c   0x000000da   Code   RO         3473    i.put_TCB_by_index  task.o
    0x08001766   0x08001766   0x00000034   Code   RO         3474    i.put_TCB_by_priorit  task.o
    0x0800179a   0x0800179a   0x0000002e   Code   RO         3475    i.put_TCB_by_tick   task.o
    0x080017c8   0x080017c8   0x00000016   Code   RO         3476    i.put_TCB_to_back   task.o
    0x080017de   0x080017de   0x00000046   Code   RO         3981    i.put_softTimer_by_index  softtimer.o
    0x08001824   0x08001824   0x0000002a   Code   RO         3982    i.put_soft_timer_by_tick  softtimer.o
    0x0800184e   0x0800184e   0x00000002   PAD
    0x08001850   0x08001850   0x00000114   Code   RO         3715    i.pvPortMalloc      heap_4.o
    0x08001964   0x08001964   0x00000040   Code   RO         3671    i.queueCreate       queue.o
    0x080019a4   0x080019a4   0x000000d8   Code   RO         3673    i.queueReceive      queue.o
    0x08001a7c   0x08001a7c   0x000000e0   Code   RO         3674    i.queueSend         queue.o
    0x08001b5c   0x08001b5c   0x0000001c   Code   RO         3477    i.restore_Critical_status  task.o
    0x08001b78   0x08001b78   0x00000018   Code   RO         3478    i.resumeScheduler   task.o
    0x08001b90   0x08001b90   0x000000c8   Code   RO         3989    i.softTimerTask     softtimer.o
    0x08001c58   0x08001c58   0x000000cc   Code   RO         3990    i.soft_timer_command_process  softtimer.o
    0x08001d24   0x08001d24   0x00000040   Code   RO         3866    i.stack_init        port.o
    0x08001d64   0x08001d64   0x00000088   Code   RO         3479    i.startScheduler    task.o
    0x08001dec   0x08001dec   0x000000b8   Code   RO         3480    i.staticCreateTask  task.o
    0x08001ea4   0x08001ea4   0x00000068   Code   RO         3675    i.staticQueueCreate  queue.o
    0x08001f0c   0x08001f0c   0x00000018   Code   RO         3481    i.suspendScheduler  task.o
    0x08001f24   0x08001f24   0x00000006   Code   RO         3867    i.switch_context_SVC  port.o
    0x08001f2a   0x08001f2a   0x00000006   Code   RO         3868    i.switch_context_pendSV  port.o
    0x08001f30   0x08001f30   0x00000038   Code   RO         3198    i.task1             main.o
    0x08001f68   0x08001f68   0x00000014   Code   RO         3199    i.task2             main.o
    0x08001f7c   0x08001f7c   0x00000028   Code   RO         3482    i.taskDelay         task.o
    0x08001fa4   0x08001fa4   0x00000058   Code   RO         3483    i.taskDelete        task.o
    0x08001ffc   0x08001ffc   0x00000080   Code   RO         3716    i.vPortFree         heap_4.o
    0x0800207c   0x0800207c   0x00000020   Data   RO         4384    Region$$Table       anon$$obj.o


    Execution Region RW_IRAM1 (Exec base: 0x20000000, Load base: 0x0800209c, Size: 0x000029e8, Max: 0x00005000, ABSOLUTE)

    Exec Addr    Load Addr    Size         Type   Attr      Idx    E Section Name        Object

    0x20000000   0x0800209c   0x00000014   Data   RW           28    .data               system_stm32f10x.o
    0x20000014   0x080020b0   0x00000014   Data   RW         1805    .data               stm32f10x_rcc.o
    0x20000028   0x080020c4   0x00000003   Data   RW         3200    .data               main.o
    0x2000002b   0x080020c7   0x00000001   PAD
    0x2000002c   0x080020c8   0x00000009   Data   RW         3491    .data               task.o
    0x20000035   0x080020d1   0x00000003   PAD
    0x20000038   0x080020d4   0x00000020   Data   RW         3722    .data               heap_4.o
    0x20000058   0x080020f4   0x00000004   Data   RW         4358    .data               mc_w.l(stdout.o)
    0x2000005c        -       0x000002a4   Zero   RW         3490    .bss                task.o
    0x20000300        -       0x00000028   Zero   RW         3676    .bss                queue.o
    0x20000328        -       0x00002000   Zero   RW         3721    .bss                heap_4.o
    0x20002328        -       0x00000028   Zero   RW         3936    .bss                eventgroup.o
    0x20002350        -       0x00000198   Zero   RW         3992    .bss                softtimer.o
    0x200024e8        -       0x00000500   Zero   RW            1    STACK               startup_stm32f10x_md.o


==============================================================================

Image component sizes


      Code (inc. data)   RO Data    RW Data    ZI Data      Debug   Object Name

         0          0          0          0          0       4516   core_cm3.o
         0          0          0          0         40       1337   eventgroup.o
       632         72          0         32       8192       6372   heap_4.o
       256         78          0          3          0     229162   main.o
       132         22          0          0          0     204783   misc.o
       636         76          0          0          0      20807   port.o
       608         16          0          0         40       4761   queue.o
       682         40          0          0        408       7050   softtimer.o
        36          8        236          0       1280        796   startup_stm32f10x_md.o
       278          0          0          0          0      10268   stm32f10x_gpio.o
        20          0          0          0          0       2385   stm32f10x_it.o
       276         32          0         20          0      12978   stm32f10x_rcc.o
       246         42          0          0          0      23626   stm32f10x_tim.o
       274          6          0          0          0       9832   stm32f10x_usart.o
       492         50          0         20          0      25721   system_stm32f10x.o
      2822        226          0          9        676      18129   task.o
       134          0          0          0          0       4346   timer.o
       156         12          0          0          0       2761   uart.o

    ----------------------------------------------------------------------
      7692        680        268         88      10636     589630   Object Totals
         0          0         32          0          0          0   (incl. Generated)
        12          0          0          4          0          0   (incl. Padding)

    ----------------------------------------------------------------------

      Code (inc. data)   RO Data    RW Data    ZI Data      Debug   Library Member Name

         0          0          0          0          0          0   entry.o
         0          0          0          0          0          0   entry10a.o
         0          0          0          0          0          0   entry11a.o
         8          4          0          0          0          0   entry2.o
         4          0          0          0          0          0   entry5.o
         0          0          0          0          0          0   entry7b.o
         0          0          0          0          0          0   entry8b.o
         8          4          0          0          0          0   entry9a.o
        30          0          0          0          0          0   handlers.o
        36          8          0          0          0         68   init.o
        36          0          0          0          0         68   memcpya.o
       246         10          0          0          0        176   printf2.o
         0          0          0          4          0          0   stdout.o
        18          0          0          0          0         68   strcpy.o

    ----------------------------------------------------------------------
       388         26          0          4          0        380   Library Totals
         2          0          0          0          0          0   (incl. Padding)

    ----------------------------------------------------------------------

      Code (inc. data)   RO Data    RW Data    ZI Data      Debug   Library Name

       386         26          0          4          0        380   mc_w.l

    ----------------------------------------------------------------------
       388         26          0          4          0        380   Library Totals

    ----------------------------------------------------------------------

==============================================================================


      Code (inc. data)   RO Data    RW Data    ZI Data      Debug   

      8080        706        268         92      10636     585898   Grand Totals
      8080        706        268         92      10636     585898   ELF Image Totals
      8080        706        268         92          0          0   ROM Totals

==============================================================================

    Total RO  Size (Code + RO Data)                 8348 (   8.15kB)
    Total RW  Size (RW Data + ZI Data)             10728 (  10.48kB)
    Total ROM Size (Code + RO Data + RW Data)       8440 (   8.24kB)

==============================================================================

